:100000000C9496000C940A1D0C94371D0C94BE00A1
:100010000C94BE000C94BE000C94BE000C94BE0068
:100020000C94BE000C94BE000C94BE000C94BE0058
:100030000C94BE000C94BE000C94BE000C94BE0048
:100040000C94641D0C94BE000C9490040C946204F7
:100050000C94BE000C94BE000C94BE000C94BE0028
:100060000C94BE000C94BE0005A84CCDB2D44EB981
:100070003836A9020C50B9918688083CA6AAAA2A4B
:10008000BE000000803F00000000524F4C4C3B502F
:10009000495443483B5941573B414C543B506F7383
:1000A0003B506F73523B4E6176523B4C4556454C2C
:1000B0003B4D41473B56454C3B0041524D3B414E29
:1000C000474C453B484F52495A4F4E3B00000102B6
:1000D00000000000240027002A0000000000250086
:1000E00028002B0000000000230026002900040443
:1000F00004040404040402020202020203030303D0
:1001000003030102040810204080010204081020AB
:100110000102040810200000000700020100000393
:1001200004060000000000000000B80411241FBEF7
:10013000CFEFD8E0DEBFCDBF11E0A0E0B1E0E2E557
:10014000F4E402C005900D92AE33B107D9F714E084
:10015000AEE3B1E001C01D92AC37B107E1F711E0A9
:10016000CCE2D1E004C02297FE010E94EC21CA3209
:10017000D107C9F70E94C81E0C9427220C940000D6
:10018000FC0105900020E9F7809590958E0F9F1F48
:100190000895A0E0B0E0EFECF0E00C94FA217C01CF
:1001A000EB018A01690109C0CE012196F60109958A
:1001B000F70181937F010150104001151105A1F74E
:1001C000CDB7DEB7E8E00C941622A0E0B0E0EBEE8D
:1001D000F0E00C94FA21EC017B018A01690109C06D
:1001E000CE012196F70161917F01F6010995015039
:1001F000104001151105A1F7CDB7DEB7E8E00C946A
:1002000016229C01F999FECF32BD21BDF89A80B526
:1002100008959C01F999FECF1FBA32BD21BD60BD82
:100220000FB6F894FA9AF99A0FBE08952F923F925A
:100230004F925F926F927F928F929F92AF92BF92F6
:10024000CF92DF92EF92FF920F931F931B012C012D
:1002500039014A010E94EA1F7B018C01C401B301EC
:100260000E94EA1F9B01AC01C801B7010E944F1F09
:100270005B016C01A201910157FE07C022273327C1
:10028000A9012219330944095509D401C30197FE74
:1002900007C088279927DC0186199709A809B90999
:1002A000281739074A075B075CF5C601B50120E04E
:1002B00030E44FE054E40E94B8207B018C01C60179
:1002C000B50129E23CE54FE85EE30E94B820A601B3
:1002D00095010E94B82020E030E040E85FE30E94F2
:1002E000E81E9B01AC01C801B7010E944F1F0E948C
:1002F000B71F97FE2DC057FC29C0685F784F28C0F4
:10030000C601B50120E030E44FE054EC0E94B82073
:100310007B018C01C601B501A60195010E94B820A0
:1003200029E23CE54FE85EE30E94E81E9B01AC0138
:10033000C801B7010E944F1F20E030E041E654E4BD
:100340000E94E81E0E94B71F57FE02C06850774007
:10035000CB011F910F91FF90EF90DF90CF90BF9056
:10036000AF909F908F907F906F905F904F903F9055
:100370002F9008952F923F924F925F926F927F92AB
:100380008F929F92AF92BF92CF92DF92EF92FF92A5
:100390000F931F93DF93CF9300D000D0CDB7DEB77C
:1003A0009A8389837C836B83FC01A084B184C2849B
:1003B000D38424803580468057806080718082801D
:1003C0009380C401B301EB81FC81208131814281A2
:1003D00053810E94B8207B018C01C201B101EB81E5
:1003E000FC8124813581468157810E94B8209B0180
:1003F000AC01C801B7010E94E81E9B01AC01C60117
:10040000B5010E94E71EE981FA81608771878287C2
:100410009387C601B501EB81FC8120813181428146
:1004200053810E94B8207B018C01C201B101EB8194
:10043000FC8120853185428553850E94B8209B012F
:10044000AC01C801B7010E94E71E9B01AC01C401C9
:10045000B3010E94E81EE981FA816083718382837F
:100460009383C601B501EB81FC81248135814681EE
:1004700057810E94B8207B018C01C401B301EB813C
:10048000FC8120853185428553850E94B8209B01DF
:10049000AC01C801B7010E94E81E9B01AC01C2017A
:1004A000B1010E94E81EE981FA8164837583868325
:1004B00097830F900F900F900F90CF91DF911F9126
:1004C0000F91FF90EF90DF90CF90BF90AF909F90F3
:1004D0008F907F906F905F904F903F902F900895F6
:1004E000909387028093860290938902809388027A
:1004F00090938B0280938A0290938D0280938C025A
:10050000885E93409C01220F331F30938900209313
:10051000880030938B0020938A0095958795959558
:1005200087958093B3008093B4000895CF93DF93B1
:100530002091AC033091AD038091B2039091B3034D
:1005400097FF03C0909581959F4FECE9FFEFE81B63
:10055000F90B2E173F073CF0FC01EC59FF4F2E170B
:100560003F070CF4F901F093AD03E093AC03609105
:10057000B4037091B5032091A8033091A903CB0176
:10058000821B930B4091AA035091AB03EC01C40F63
:10059000D51FCE1BDF0BD0938702C0938602DC01F0
:1005A000A41BB50BAE0FBF1FB0938902A0938802A6
:1005B000260F371FC901840F951F8E0F9F1F909321
:1005C0008B0280938A02241B350B2E1B3F0B30932A
:1005D0008D0220938C028A179B070CF4CD018C1797
:1005E0009D070CF4CE01AC01821793070CF4A9010E
:1005F00060911A0270911B02209142012695217090
:10060000E6E8F2E0CEE7D4E0A8EEB3E037E04B3323
:10061000530744F080819181865C984F841B950B31
:10062000918380838081918134E08E3793071CF41D
:100630008EE794E006C037E08B33930714F08AE32B
:1006400097E09183808384E0603B780714F4D18342
:10065000C083222311F4B183A083329632E0EE38B6
:10066000F307A1F6DF91CF9108950F931F93CF93D6
:10067000DF9380914701813011F080E064C01092D7
:10068000470180912C038F5F80932C03843011F4F9
:1006900010922C036EE271E080912C03A82FB0E041
:1006A000AA0FBB1FA35DBC4F0DE813E04DE253E062
:1006B000C4E1D2E0FB018081E82FF0E0EE0FFF1FE4
:1006C000E85FFE4F8081918111969C938E93FA0191
:1006D0002081318182819381280F391F8481958106
:1006E000280F391F86819781280F391F2E5F3F4FB2
:1006F0003695279536952795F80131832083888193
:10070000998103972817390730F42E5F3F4F3983BB
:10071000288322503040888199810396821793075D
:1007200020F422503040398328836F5F7F4F189622
:100730000E5F1F4F485F5F4F2296F1E06A337F07DD
:1007400009F0B8CF81E0DF91CF911F910F9108950B
:10075000282F909191019F5F97FD90E0E92FF0E0A5
:10076000EE56FE4F84E28083909391019091910127
:100770009F5F97FD90E0E92FF0E0EE56FE4F8DE48D
:10078000808390939101222311F49EE301C091E2B2
:10079000809191018F5F87FD80E0E82FF0E0EE56B9
:1007A000FE4F908380939101809191018F5F87FD2F
:1007B00080E0E82FF0E0EE56FE4F608380939101D9
:1007C00090911302809191018F5F87FD80E0E82F67
:1007D000F0E0EE56FE4F908396279093120280939E
:1007E00091010895682F80E00E94A80308950F9357
:1007F0001F939B01AC01809191018F5F87FD80E089
:10080000E82FF0E0EE56FE4F6083009112028093D5
:100810009101BB27A52F942F832F182F8091910131
:100820008F5F87FD80E0E82FF0E0EE56FE4F1083EB
:1008300080939101CA01AA27BB27782F809191014B
:100840008F5F87FD80E0E82FF0E0EE56FE4F70836B
:1008500080939101852F9927AA27BB272091910189
:100860002F5F27FD20E0E22FF0E0EE56FE4F808361
:100870006027612767276827609312022093910100
:100880001F910F910895209191012F5F27FD20E086
:10089000E22FF0E0EE56FE4F80833091120220935B
:1008A0009101209191012F5F27FD20E0E22FF0E0E0
:1008B000EE56FE4F90838327892780931202209360
:1008C000910108951F920F920FB60F9211248F93EA
:1008D0009F93EF93FF9380919001909191019817CE
:1008E00069F0982F9F5F97FD90E0E92FF0E0EE56BA
:1008F000FE4F80818093C60090939001809191017A
:10090000981729F48091C1008F7D8093C100FF91D9
:10091000EF919F918F910F900FBE0F901F901895A0
:100920001F920F920FB60F9211242F938F939F93C4
:10093000EF93FF932091C60090914E019F5F9034FA
:1009400008F090E080914F01981741F0E0914E013E
:10095000F0E0E05BFE4F208390934E01FF91EF911A
:100960009F918F912F910F900FBE0F901F90189510
:100970008EE391E063E070E00E94CA1C0895AF929C
:10098000BF92CF92DF92EF92FF920F931F93A82E08
:10099000B42E00E0C62EDD24EE24FF240FC01D9AE5
:1009A000C701B6010E94D21D1F5F1A15C0F36CE388
:1009B00070E080E090E00E94D21D0F5F0B1510F4F4
:1009C00010E0F3CF1F910F91FF90EF90DF90CF9049
:1009D000BF90AF900895EF92FF920F931F93CF9324
:1009E000DF9380910E0390910F03892B09F453C07C
:1009F000C6E1D3E01CEFE12E12E0F12E00E113E09E
:100A000060910E0370910F0382E06030780721F44B
:100A1000188219821A821B82F701808191819C01C0
:100A2000442737FD4095542F88819981AA81BB8145
:100A3000280F391F4A1F5B1F288339834A835B8332
:100A400011821082F801118210826130710571F4F7
:100A5000B9E05595479537952795BA95D1F73183E4
:100A600020838AE06FE041E00E94BF04249682E088
:100A700090E0E80EF91E0E5F1F4F93E0C232D907D7
:100A800009F0BECF80910E0390910F0301979093D0
:100A90000F0380930E03ECEFF2E0C0E1D3E0A2E29B
:100AA000B3E02081318188819981281B390B4D91D8
:100AB0005C911197CA0180529340281739073CF086
:100AC000CA01805E9C4F281739070CF4C901819335
:100AD00091938D939D93229683E0E230F80709F776
:100AE000DF91CF911F910F91FF90EF90089580912A
:100AF0000E0390910F03892B91F48091420183FFA3
:100B00000EC081FD18C082608093420180919202E4
:100B1000909193029093950280939402089580910E
:100B2000420181FD08C082E06FEF41E00E94BF04F6
:100B300081E080932C0408952FEF30E019C02150FC
:100B40003040B1F41092BC000E94AC1D60932803A9
:100B50007093290380932A0390932B03809164025E
:100B600090916502019690936502809364020895C6
:100B70008091BC0087FFE3CF08951F93182F88232F
:100B800011F484E801C084EC8093BC000E949C05B1
:100B90009091BB00112319F484E98093BC00892F44
:100BA0001F9108958093BB0084E88093BC000E944D
:100BB0009C050895FF920F931F93F82E0CEB10E005
:100BC00084EAF80180830E949C05F092BB0084E8CF
:100BD000F80180830E949C051F910F91FF9008955A
:100BE0000F931F93162F042F880F0E94DA05812F71
:100BF0000E94D205802F0E94D20584E98093BC0018
:100C00001F910F91089588E66CE140E10E94F00584
:100C100080E092E09093F3028093F20208958CE0DA
:100C20008093B80088E66BE640E80E94F00565E036
:100C300070E080E090E00E94D21D88E66BE643E021
:100C40000E94F00588E66AE140E00E94F00588E62F
:100C50006BE148E10E94F00588E667E342E00E940C
:100C6000F005089568EC70E080E090E00E94D21DED
:100C70002C9A64E670E080E090E00E94D21D4498D7
:100C800045981092B90088E48093B80084E080937E
:100C9000BC0064E670E080E090E00E94D21D0E94FB
:100CA0000F060E9403066091F2027091F30280E049
:100CB00090E00E94E81F25E733E948ED5EE30E94DB
:100CC000B8200E94BC1F7093F5026093F4028091DB
:100CD00042018460809342010895EF92FF920F9346
:100CE0001F93CF93DF93162F072FF42EE52E880F37
:100CF00081600E94DA05212F302FC901EC012F2DD0
:100D00003E2DC9018C0108C00150104080E009F05F
:100D100081E00E94BD05899301151105A9F78F2D6A
:100D20009E2DDF91CF911F910F91FF90EF9008952D
:100D3000CF92DF92EF92FF920F931F93C82ED62E81
:100D40008A017901880F0E94DA058D2D0E94D20553
:100D50008C2DB801A7010E946D061F910F91FF9085
:100D6000EF90DF90CF90089548E451E026E030E026
:100D70000E949806089588E663E40E94B406909164
:100D80004A0180E020914B0130E0822B932B90951B
:100D900081959F4F95958795959587959093FD02A1
:100DA0008093FC029091480180E02091490130E05D
:100DB000822B932B95958795959587959093FF0218
:100DC0008093FE0290914C0180E020914D0130E033
:100DD000822B932B909581959F4F9595879595950F
:100DE000879590930103809300030E94EB0408957C
:100DF0000E94AC1DAB012091A6033091A703421BBA
:100E0000530B7093A7036093A6032BE0493B520753
:100E100040F08091A5038150809320011092A5039A
:100E20000895CA01855893408351954098F4909154
:100E3000A5039C3078F4E92FF0E0EE0FFF1FE85F88
:100E4000FE4F5183408380912001981718F081E074
:100E5000809347018091A5038F5F8093A503089538
:100E60002F923F924F925F926F927F928F929F92BA
:100E7000AF92BF92CF92DF92EF92FF920F931F93A8
:100E8000DF93CF93CDB7DEB76C970FB6F894DEBF84
:100E90000FBECDBF0E94AC1D7B018C018091F4037D
:100EA0009091F503B701681B790B80E090E00E94F8
:100EB000E81F24E836ED46EA51E30E94B8203B01E2
:100EC0004C01F092F503E092F4032E010894411CCA
:100ED000511C71E2E72E71E0F72EAA24BB246501B4
:100EE00000E010E0F801E450FD4F60817181882737
:100EF00077FD8095982F0E94EA1FA40193010E941C
:100F0000B820D2016D937D938D939D932D01F701B0
:100F100080819181A281B381F801EA50FD4F208147
:100F20003181442737FD4095542F280F391F4A1F20
:100F30005B1F64E0B595A795979587956A95D1F75E
:100F4000281B390B4A0B5B0BD7012D933D934D9317
:100F50005D937D0184E055954795379527958A9552
:100F6000D1F7F801EC58FD4F31832083442737FD3A
:100F70004095542FCA01B9010E946721A60EB71EE1
:100F8000C81ED91E0E5F1F4F0630110509F0AACFEB
:100F9000E090F202F090F30288EE93E0BE016F5F02
:100FA0007F4F0E94BA012091F4023091F5028091A6
:100FB00074029091750297FF03C0909581959F4FA1
:100FC00082179307B8F4809176029091770297FF89
:100FD00003C0909581959F4F8217930758F4809195
:100FE0007802909179021816190624F48091430131
:100FF000806803C0809143018F778093430100E0B4
:1010000010E0C601B50124E630E040E050E00E9467
:1010100067215B016C01C801B701A80197010E941B
:1010200067219B01AC01C601B5010E94CF21295463
:101030003040404050402C33310541055105B0F55A
:10104000B8EECB2EB3E0DB2EA4E7AA2EA2E0BA2E98
:10105000F601608171818281938120E030E046E178
:1010600054E40E94B8207B018C01D5016D917D91E3
:101070005D01882777FD8095982F0E94EA1F9B01CC
:10108000AC01C801B7010E94E81E20E037E14AED3B
:101090005AE30E94B820F601619371938193919372
:1010A0006F01F4EFCF16F3E0DF0691F66091E803ED
:1010B0007091E9038091EA039091EB030E94B71FBE
:1010C0001B012C016093C0037093C1038093C20382
:1010D0009093C3036091EC037091ED038091EE0354
:1010E0009091EF030E94B71F698B7A8B8B8B9C8B3F
:1010F0006093C4037093C5038093C6039093C703A2
:101100006091F0037091F1038091F2039091F303E9
:101110000E94B71F3B014C016093C8037093C90341
:101120008093CA039093CB03C201B101A201910144
:101130000E9467217B018C01C401B301A4019301CA
:101140000E946721E60EF71E081F191FC801B7018C
:101150000E94EA1F6D877E878F87988B8D859E857D
:10116000AF85B889B595A79597958795EFEDAE2E84
:10117000E9E5BE2EE7E3CE2EEFE5DE2EA6019501D2
:10118000281B390B4A0B5B0B2D8B3E8B4F8B588FDB
:1011900069897A898B899C899B01AC010E946721AE
:1011A000E60EF71E081F191FC801B7010E94EA1FAB
:1011B0007B018C01DC01CB01B595A79597958795AF
:1011C000A81AB90ACA0ADB0AC601B50120E030E054
:1011D00040E05FE30E94B820698F7A8F8B8F9C8FED
:1011E000C801B701A60195010E94B820A60195018A
:1011F0000E94B8209B01AC0160E070E080E490E4C4
:101200000E94E71E9B01AC01698D7A8D8B8D9C8DB0
:101210000E94B8206093CC037093CD038093CE03DB
:101220009093CF03C201B101A40193010E94160162
:1012300090938F0280938E026D897E898F89988D1D
:1012400020E030E040E05FE30E94B8207B018C01A9
:101250006D857E858F8598892D893E894F89588D2A
:101260000E94B8202D893E894F89588D0E94B82050
:101270009B01AC0160E070E080E490E40E94E71E16
:101280009B01AC01C801B7010E94B8202D853E85A5
:101290004F8558890E94B8200E94B71F9B01AC015E
:1012A00069897A898B899C890E94160190939102A1
:1012B000809390026C960FB6F894DEBF0FBECDBF40
:1012C000CF91DF911F910F91FF90EF90DF90CF9022
:1012D000BF90AF909F908F907F906F905F904F9056
:1012E0003F902F9008958091000161E00E94881E38
:1012F0008091010161E00E94881E8091020161E0FD
:101300000E94881E8091030161E00E94881EE0E82F
:10131000F0E022E0208381E18093810088EF97E074
:1013200090938700809386002093B100808180682D
:101330008083808180628083E0EBF0E08081806840
:10134000808380818062808388EE93E00E947002B7
:101350006CE271E080E090E00E94D21D0895CF938E
:10136000DF938DE060E00E94881E80E068EF76E009
:1013700043E050E00E94E71CAEE2B1E0C4E1D2E0FD
:10138000ED91F0E0EE0FFF1FE85FFE4F808191814D
:101390008993999381E0AA33B80791F7DF91CF91B0
:1013A00008952F923F924F925F926F927F928F9209
:1013B0009F92AF92BF92CF92DF92EF92FF920F93E4
:1013C0001F93DF93CF9300D000D0CDB7DEB70E943C
:1013D000AC1D9B01AC015B018091E6039091E7039A
:1013E000A81AB90A68EAA61661E6B60610F480E003
:1013F0006BC23093E7032093E6038091B60390918C
:10140000B7039C01442737FD4095542F80919602E5
:1014100090919702A0919802B09199020097A1052E
:10142000B10559F179018A01E81AF90A0A0B1B0B77
:10143000EBE0EE16F104010511053CF09C01AD0155
:10144000265F3F4F4F4F5F4F18C0F6EFEF16FFEF8D
:10145000FF06FFEF0F07FFEF1F073CF49C01AD01F4
:101460002A5030404040504008C0280F391F4A1FC2
:101470005B1F559547953795279520939602309396
:10148000970240939802509399028091B8039091EB
:10149000B903A091BA03B091BB03821B930BA40BB9
:1014A000B50B843C2FEF92072FEFA2072FEFB20767
:1014B0001CF444EC5FEF0AC08D339105A105B10522
:1014C00024F08CE390E0A0E0B0E0AC01CA01099602
:1014D000439718F440E050E00BC0141615061CF4B6
:1014E0004A50504005C04115510511F0465F5F4F0D
:1014F0008091300290E0489FB001499F700D589F45
:10150000700D1124A4E075956795AA95E1F76739E8
:10151000710514F066E970E080913A0290E0489F0E
:101520009001499F300D589F300D1124F6E03595FC
:101530002795FA95E1F78091BE039091BF03280F9C
:10154000391F2739310514F026E930E0C9013FEF92
:101550008A36930714F48AE69FEF9093BF03809333
:10156000BE039C01E6E035952795EA95E1F7CB01AE
:101570004FEF6A36740714F48AE69FEF280F391F7D
:101580003093BD032093BC03609176027091770283
:10159000882777FD8095982F2091C4033091C5034B
:1015A0004091C6035091C7030E9467217B018C01C3
:1015B0006091740270917502882777FD8095982F4D
:1015C0002091C0033091C1034091C2035091C303E5
:1015D0000E946721E60EF71E081F191F609178020E
:1015E00070917902882777FD8095982F2091C80304
:1015F0003091C9034091CA035091CB030E946721E7
:10160000E60EF71E081F191FC801B7010E94EA1F46
:101610002091CC033091CD034091CE035091CF0364
:101620000E94B8200E94B71F8091420181FD12C024
:101630008091E4039091E5039C0153E03595279553
:101640005A95E1F7821B930B860F971F9093E50342
:101650008093E4038091E4039091E50343E0959542
:1016600087954A95E1F76B01C81AD90A8091F20271
:101670009091F30235E0969587953A95E1F79601BA
:10168000D7FE04C0222733272C193D092817390714
:1016900018F4CC24DD240BC01C141D041CF4C81A3F
:1016A000D90A05C0C114D10411F0C80ED91E809109
:1016B000D003882311F580ED93E00E94D91E892B79
:1016C000E1F06091F2027091F30280E090E00E94FC
:1016D000E81F9B01AC0168EA79E880E89AE30E9480
:1016E0004F1F6093DC037093DD038093DE039093C0
:1016F000DF0380ED93E00E94E31E8091E003909170
:10170000E103A091E203B091E30389839A83AB8361
:10171000BC834090DC035090DD036090DE0370904A
:10172000DF03B50180E090E00E94E81F4B015C01FF
:10173000E0909602F0909702009198021091990221
:101740008091D8039091D903A091DA03B091DB0383
:10175000A8019701281B390B4A0B5B0BCA01B90181
:101760000E94EA1F20E034E244E759E40E94B820D6
:10177000A50194010E944F1F0E94B71FE092D80359
:10178000F092D9030093DA031093DB03CB0131E02D
:101790006D32730714F08CE291E01C014EEF843D32
:1017A000940724F424ED222E2EEF322EC101099647
:1017B000439718F4222433240FC0121413042CF47A
:1017C00086EF9FEF280E391E07C02114310421F047
:1017D000AAE0B0E02A0E3B1EB601882777FD80956F
:1017E000982F0E94EA1FA30192010E94B820A50130
:1017F00094010E94B8209B01AC0169817A818B81A0
:101800009C810E94E81E26EF38E24CE75FE30E94CD
:10181000B8207B018C01B101882777FD8095982F36
:101820000E94EA1F2FE832EC45E75CE30E94B820F3
:101830009B01AC01C801B7010E94E81E6093E00360
:101840007093E1038093E2039093E3030E94B71F38
:101850009B01AC01CB010496099718F460E070E09D
:101860000AC0121613061CF46550704004C0232BE6
:1018700011F06B5F7F4F70939B0260939A0280918F
:10188000440290E0689F9001699F300D789F300D71
:10189000112494E0359527959A95E1F7273931057C
:1018A00014F026E930E0BFEF2A363B0714F42AE6AD
:1018B0003FEF8091BC039091BD03821B930B9093EB
:1018C000BD038093BC0381E00F900F900F900F90A9
:1018D000CF91DF911F910F91FF90EF90DF90CF900C
:1018E000BF90AF909F908F907F906F905F904F9040
:1018F0003F902F9008951F93182FE6E6F2E095E5AC
:101900008191980F82E0E337F807D1F790833D97F4
:1019100080E090E0BF014EE050E029E031E00E941D
:10192000E500113029F48FE064E141E00E94BF043A
:101930001F9108950F931F93CF93DF936091A3029C
:101940007091A4026115710509F481C0E2E0F3E031
:10195000C6EFD2E007E612E082E06030780721F4BB
:10196000108211821282138228813981442737FD27
:101970004095542F80819181A281B381820F931F62
:10198000A41FB51F81939193A193B19319921992BA
:10199000D8011D921D928D01B3E0EE30FB07E1F6F8
:1019A0006130710509F04AC08091020390910303F0
:1019B000A0910403B091050329E0B595A7959795EB
:1019C00087952A95D1F7909368028093670280915A
:1019D000060390910703A0910803B091090309E061
:1019E000B595A795979587950A95D1F790936A0233
:1019F0008093690280910A0390910B03A0910C03DC
:101A0000B0910D0319E0B595A795979587951A950F
:101A1000D1F72091F2023091F302821B930B909345
:101A20006C0280936B021092530210925202109239
:101A300055021092540281E00E947B0C8091A30217
:101A40009091A40201979093A4028093A3028091A5
:101A5000F6029091F7022091670230916802821B92
:101A6000930B9093F7028093F6028091F802909185
:101A7000F9022091690230916A02821B930B9093C4
:101A8000F9028093F8028091FA029091FB02209172
:101A90006B0230916C02821B930B9093FB0280933C
:101AA000FA02DF91CF911F910F91089588E66BE3C1
:101AB0000E94B4069091480180E02091490130E0F5
:101AC000822B932B53E0959587955A95E1F7909348
:101AD000F7028093F60290914A0180E020914B0139
:101AE00030E0822B932B43E0959587954A95E1F75B
:101AF0009093F9028093F80290914C0180E020913C
:101B00004D0130E0822B932B33E0959587953A95E4
:101B1000E1F79093FB028093FA020E949A0C0895D9
:101B20002F923F924F925F926F927F928F929F92ED
:101B3000AF92BF92CF92DF92EF92FF920F931F93DB
:101B4000DF93CF93CDB7DEB760970FB6F894DEBFC3
:101B50000FBECDBF109266028CE292E06EE070E0A4
:101B600044E350E021E031E00E94C900ECE2F2E001
:101B700095E58191980F02E0EF35F007D1F780816C
:101B8000981739F086E064E643E00E94BF040E94A3
:101B9000070F80914C02882E992480914B02C82E09
:101BA000DD24EE24FF24A2E0AA2EA4E0BA2E00E059
:101BB00010E0009FC001019F900D109F900D112417
:101BC00049979C01289DC001299D900D389D900D3D
:101BD00011248C53964F809FB001819F700D909F70
:101BE000700D1124882777FD8095982FA701960105
:101BF0000E94672124EC39E040E050E00E94CF21B0
:101C0000D5012D933D935D010F5F1F4F06301105E8
:101C100081F620905002222D30E0F4E63F2E32185B
:101C20004901880C991CC90173E0880F991F7A95A6
:101C3000E1F7880E991E4091510284E690E0841BE2
:101C400091097C010027F7FC0095102FEB86FC869C
:101C50000D871E87642F70E080E090E06F837887A7
:101C600089879A8780915D0290915E029E838D8321
:101C70008AE397E0AD81BE818A1B9B0B7C01002724
:101C8000F7FC0095102FE982FA820B831C83002752
:101C90001127021B130B188B0F876EE0A62E64E032
:101CA000B62ECC24DD2476012801662457FC6094EE
:101CB000762C2F8538891216130614F001E001C026
:101CC000032D4F85588957FD022D10E08F85988987
:101CD000889FB001899F700D989F700D11248827EF
:101CE00077FD8095982F2F81388549855A850E94E8
:101CF0006721009F9001019F300D109F300D11242E
:101D0000442737FD4095542F0E94CF21CA01B901C5
:101D10000B851C852D853E85600F711F821F931FCB
:101D2000A7019601240D351D461D571D0E946721F0
:101D30002AE030E040E050E00E94CF21B401620F81
:101D4000731F882777FD8095982F29813A814B81D1
:101D50005C810E94672128EE33E040E050E00E9461
:101D6000CF218D819E81820F931FD5018D939D93ED
:101D70005D01EF85F8893A96F88BEF870AE010E06D
:101D800020E030E0C00ED11EE21EF31E14E0A432AB
:101D9000B10709F08ECF60960FB6F894DEBF0FBE84
:101DA000CDBFCF91DF911F910F91FF90EF90DF900A
:101DB000CF90BF90AF909F908F907F906F905F90EB
:101DC0004F903F902F9008951F93182F1092660206
:101DD000ECE2F2E095E58191980F82E0EF35F807AB
:101DE000D1F79083F3978EE090E0BF0144E350E099
:101DF00029E031E00E94E5000E94900D113029F4A5
:101E00008FE064E141E00E94BF041F91089521E248
:101E100020932D029EE19093370287E18093410247
:101E200020932E02909338028093420284E48093A0
:101E30002F022DE2209339021092430280E4809316
:101E4000300289E180933A0288E1809344028BE07A
:101E50008093310210923B021092450294E19093DC
:101E6000320288E080933C02209346028EE0809309
:101E7000330290933D0280E5809347029AE5909368
:101E800034028AE080933E0284E68093480288E22E
:101E900080933502109236021092400210924A024C
:101EA00090934B0281E480934C0210924D02109269
:101EB0004E0210924F0282E3809350021092510220
:101EC0001092570210925602109259021092580224
:101ED00010925B0210925A02109253021092520218
:101EE000109255021092540210925C028EE794E018
:101EF00090935E0280935D0280E00E94E40E08955C
:101F00001F93CF93DF9380911302833709F471C33A
:101F1000843770F58C3609F4F2C18D36B0F486360C
:101F200009F487C1873638F4843609F408C1853648
:101F300009F0ADC33CC1883609F4BFC1883608F446
:101F4000B0C1893609F0A3C3CCC18F3609F424C2CD
:101F5000803738F48D3609F4ECC18E3609F097C31A
:101F6000FAC1813709F4E8C2823708F038C388C261
:101F70008C3C09F48EC08D3CA8F4873709F411C35A
:101F8000883738F4843709F4EBC2853709F07FC30A
:101F9000B4C28A3CD9F18B3C08F05DC0883C09F0A2
:101FA00076C316C0803D09F441C3813D38F48E3CB0
:101FB00009F44EC38F3C08F058C33FC38A3F09F46D
:101FC00051C38E3F09F455C3833D09F060C39EC0E1
:101FD000A4E1B2E08091AD02E82FF0E0E255FD4FC0
:101FE00020818F5FE82FF0E0E255FD4F90818F5FF9
:101FF0008093AD02592F40E0CA01820F911D8D934D
:102000009D9382E0A432B80729F72FC3ADE2B2E076
:102010008091AD02E82FF0E0E255FD4F90818F5F97
:102020009C93E82FF0E0E255FD4F90818F5F1A9668
:102030009C931A97E82FF0E0E255FD4F90818F5F57
:102040008093AD0254969C9354971196E2E0A73387
:10205000BE07F1F60AC3A6E5B2E08091AD02E82F13
:10206000F0E0E255FD4F20818F5FE82FF0E0E25570
:10207000FD4F90818F5F8093AD02592F40E0CA01E0
:10208000820F911D8D939D93F2E0AC35BF0729F728
:10209000ECC28091AD02E82FF0E0E255FD4F908157
:1020A0008F5F90934B02E82FF0E0E255FD4F908157
:1020B0008F5F90934C02E82FF0E0E255FD4F908146
:1020C0008F5F90934D02E82FF0E0E255FD4F908135
:1020D0008F5F90934E02E82FF0E0E255FD4F908124
:1020E0008F5F90934F02E82FF0E0E255FD4F908113
:1020F0008F5F90935002E82FF0E0E255FD4F908102
:102100008F5F8093AD0290935102AFC28091AD0278
:10211000E82FF0E0E255FD4F30818F5FE82FF0E0CF
:10212000E255FD4F20818F5F8093AD02922F80E0BA
:10213000830F911D909361028093600296C287E0A5
:102140000E94F203909191019F5F97FD90E0E92F2B
:10215000F0E0EE56FE4F8CED8083209112029093BA
:102160009101909191019F5F97FD90E0E92FF0E040
:10217000EE56FE4F83E08083909391019091910100
:102180009F5F97FD90E0E92FF0E0EE56FE4F108242
:102190008FED28272093120290939101E6E8F0E05A
:1021A00065917591859194910E94F70374C28BE0BB
:1021B0000E94F20380916202909163020E944304A4
:1021C00080916402909165020E94430481E090E056
:1021D0000E94430420914201622F629566956170CE
:1021E00070E0660F771F422F4295469546954170E5
:1021F00050E0440F551F440F551F642B752B269537
:10220000217030E0622B732B882777FD8095982F03
:102210000E94F70320916602909191019F5F97FDC4
:1022200090E0E92FF0E0EE56FE4F208380911202FD
:1022300021C182E10E94F2038091740290917502A3
:102240000E94430480917602909177020E94430499
:1022500080917802909179020E94430480917A02E1
:1022600090917B020E94430480917C0290917D02B8
:102270000E94430480917E0290917F020E94430459
:1022800080918002909181020E9443048091820299
:10229000909183020E944304809184029091850270
:1022A000A5C180E10E94F20310E080E090E00E946E
:1022B00043041F5F1830C9F7EEC180E10E94F203AA
:1022C000C6E8D2E010E0143018F080E090E002C0E0
:1022D000888199810E9443041F5F2296183099F7E4
:1022E000DAC188E10E94F203C4E1D2E089919991B8
:1022F0000E94430482E0CC32D807C1F7CCC188E009
:102300000E94F20380918E0290918F020E944304FA
:1023100080919002909191020E94430480919202D8
:10232000909193020E9443048091940290919502AF
:102330005DC186E00E94F20360919602709197025F
:1023400080919802909199020E94F70380919A02DD
:1023500090919B024BC185E00E94F20320919C0268
:10236000909191019F5F97FD90E0E92FF0E0EE568C
:10237000FE4F208380911202822780931202909355
:10238000910180919D0290919E020E944304809150
:102390009F029091A0022AC187E00E94F2037091EF
:1023A0004B02809191018F5F87FD80E0E82FF0E084
:1023B000EE56FE4F7083A0911202809391016091BE
:1023C0004C02809191018F5F87FD80E0E82FF0E063
:1023D000EE56FE4F60838093910150914D028091A3
:1023E00091018F5F87FD80E0E82FF0E0EE56FE4F11
:1023F00050838093910140914E02809191018F5FB3
:1024000087FD80E0E82FF0E0EE56FE4F408380939A
:10241000910130914F02809191018F5F87FD80E0A3
:10242000E82FF0E0EE56FE4F30838093910120912B
:102430005002909191019F5F97FD90E0E92FF0E0AD
:10244000EE56FE4F2083862F8727852784278327F4
:1024500082278A2780931202909391012091510242
:10246000909191019F5F97FD90E0E92FF0E0EE568B
:10247000FE4F2083822780931202909391010BC11B
:102480008EE10E94F20330911202ADE2B2E04C9173
:10249000809191018F5F87FD80E0E82FF0E0EE569C
:1024A000FE4F4083809391011A969C911A978091D8
:1024B00091018F5F87FD80E0E82FF0E0EE56FE4F40
:1024C00090838093910154962C915497809191011F
:1024D0008F5F87FD80E0E82FF0E0EE56FE4F20830F
:1024E000942792273927809391011196E2E0A73330
:1024F000BE0769F630931202CEC08AE890E00E94CF
:10250000C0000E94F203409112022AE830E00FC09E
:10251000809191018F5F87FD80E0E82FF0E0EE561B
:10252000FE4F90834927809391012F5F3F4FF90120
:102530009491992369F732C086E00E94F20380915A
:102540005602909157020E94430480915802909144
:1025500059020E94430480915A0290915B0246C046
:102560008AEB90E00E94C0000E94F20340911202A8
:102570002AEB30E00FC0809191018F5F87FD80E0F2
:10258000E82FF0E0EE56FE4F9083492780939101AB
:102590002F5F3F4FF9019491992369F740931202FD
:1025A0007AC083E00E94F2039091120220E030E0B2
:1025B000F901E353FF4F4491809191018F5F87FDB3
:1025C00080E0E82FF0E0EE56FE4F408394278093A2
:1025D00091012F5F3F4F2330310551F724C082E036
:1025E0000E94F2038091A1029091A2020E944304F2
:1025F00052C088E00E94F20390911202A0E0B1E084
:102600002C91809191018F5F87FD80E0E82FF0E0B1
:10261000EE56FE4F20839227809391011196F1E0B0
:10262000A830BF0769F79093120235C0809142012C
:1026300081FD1BC00E94070F18C08091420181FDDF
:1026400014C080E092E09093A4028093A3020DC096
:102650008091420181FD09C0809144018160809395
:10266000440103C080E00E94E40E80E00E94F20377
:1026700012C088E00E94F203C5EAD2E089919991E4
:102680000E94430482E0CD3AD807C1F704C081E03C
:1026900060E00E94A80390911202809191018F5FE7
:1026A00087FD80E0E82FF0E0EE56FE4F9083109219
:1026B0001202809391018091C10080628093C100D9
:1026C000DF91CF911F910895EF92FF920F931F9387
:1026D000CF93DF9305E0E02EF12C04E010E0C1E0A1
:1026E000D0E083C08091910190919001891B8F77F8
:1026F0008F3408F088C090914F01E92FF0E0E05B43
:10270000FE4F308180914E01891739F0E92FEF5F3C
:10271000E03408F0E0E0E0934F018091EE02909108
:10272000EF02009761F41092EF021092EE02343241
:1027300009F05BC0D093EF02C093EE0256C0813027
:10274000910529F43D3441F482E090E00AC08230E2
:10275000910561F43C3319F080E090E002C083E021
:1027600090E09093EF028093EE023FC0833091059A
:1027700079F43134B0F53093F0021092F1021092F6
:10278000AD02309312021093EF020093EE022DC0BF
:102790008430910561F430931302809112028327F3
:1027A00080931202F092EF02E092EE021EC00597B3
:1027B000E1F42091F1028091F00290911202281729
:1027C00060F4932790931202E22FF0E0E255FD4F60
:1027D00030832F5F2093F10208C0931711F40E94F9
:1027E000800F1092EF021092EE0280914E01209124
:1027F0004F0190E0821B910960E470E00E949A21F1
:10280000882309F06FCFDF91CF911F910F91FF9037
:10281000EF90089586E692E060E070E04EE050E0D0
:1028200021E031E00E94C900E6E6F2E095E5819101
:10283000980F82E0E337F807D1F78081981741F0CD
:102840001092660288E893E1909368028093670291
:10285000089582E08093C0001092C50080E18093CB
:10286000C400E1ECF0E08081886980838DE061E064
:102870000E94881E8CE061E00E94881E88E061E072
:102880000E94881E2C980E947309109266020E9472
:10289000900D0E940A140E94900D409166024F5FB5
:1028A00082E068E20E94BF040E94AF090E943206E3
:1028B0000E94AC1D70933C0460933B0480E092E066
:1028C00090930F0380930E0388EC90E090936A043A
:1028D00080936904EAE7F0E08081846080838081EE
:1028E0008D7F808380818E7F80838091430180688B
:1028F0008093430108952F923F924F925F926F927F
:102900007F928F929F92AF92BF92CF92DF92EF927F
:10291000FF920F931F93DF93CF93CDB7DEB7289726
:102920000FB6F894DEBF0FBECDBF60901A02709054
:102930001B022CED621625E0720614F444E61EC05C
:1029400030ED631637E07306ACF4C3018C5D95403F
:1029500020914F0230E0AC01429FC001439F900D97
:10296000529F900D112464EF71E00E94862144E68D
:10297000461B04C044E680914F02481B80914D02E3
:10298000682F70E07E836D8380914E02282E332461
:1029900074E1472E72E0572E6DE2862E62E0962E8D
:1029A0005EEAA52E53E0B52ECC24DD24D201ED90B5
:1029B000FC90BDEDEB16B5E0FB0634F0E0EDEE1655
:1029C000E7E0FE0644F40AC08CED95E08E199F09FD
:1029D000845F91401CF084EF91E013C02DEDE2166E
:1029E00025E0F20624F0C7018C5D954004C08CED13
:1029F00095E08E199F098730910518F418861F827B
:102A000005C0BC016650704078876F8372E0C716BE
:102A100009F44CC08F81988564E670E00E9486219D
:102A2000FB01EE0FFF1FEE5FFB4F00811181FB01E9
:102A3000EE0FFF1FEC5FFB4F20813181201B310B1C
:102A4000E4E6F0E06E9FC0016F9F900D7E9F900DB9
:102A500011246F817885681B790B269FC001279F01
:102A6000900D369F900D112464E670E00E9486213F
:102A7000060F171FD5010D931C93EF81F8852D814B
:102A80003E81E29FC001E39F900DF29F900D1124C3
:102A900064EF71E00E94862184E6861B849FC0015A
:102AA000112464E670E00E94862113C0EF81F8854E
:102AB000D501ED93FC93E29DC001E39D900DF29D45
:102AC000900D112464EF71E00E948621F4E6F61B5C
:102AD0006F2F262F30E0F601E35CFB4FD4018C9181
:102AE00090E0BC01269FC001279F900D369F900D5E
:102AF000112464E670E00E9486216083F601E05CA8
:102B0000FB4FD40154968C9190E0BC01269FC001EC
:102B1000279F900D369F900D112464E670E00E946F
:102B2000862160837CEDE71675E0F7064CF4D5014D
:102B30008D919C911197909581959F4F8D939C932A
:102B40000894C11CD11CE2E0F0E04E0E5F1E089418
:102B5000811C911CAE0EBF1EF3E0CF16D10409F00C
:102B600025CF20EB621624E072061CF460EB74E0C3
:102B700007C0B30137E0613D730714F060ED77E003
:102B8000605B744080E090E028EE33E040E050E08D
:102B90000E94672120E233E040E050E00E94AD2136
:102BA0008901C90164E670E00E948621FB01EE0FF5
:102BB000FF1FE25FFB4FE080F180FB01EE0FFF1F84
:102BC000E05FFB4F408151814E195F0924E630E000
:102BD000629FC001639F900D729F900D1124081B8E
:102BE000190B409FC001419F900D509F900D1124E3
:102BF00064E670E00E948621E60EF71EF092B503AF
:102C0000E092B4038091430183FF73C0609192020C
:102C1000709193022091940230919502621B730B84
:102C2000882777FD8095982F0E94EA1F29E33AEFC5
:102C30004EE85CE30E94B8207B018C01C8010E9431
:102C40004C1F69837A838B839C83B701C8010E94E0
:102C50001B211B012C016091B0037091B1038827E7
:102C600077FD8095982F0E94EA1F3B014C016091EF
:102C7000AE037091AF03882777FD8095982F0E944F
:102C8000EA1F5B016C0129813A814B815C810E94C2
:102C9000B8207B018C01C401B301A20191010E9403
:102CA000B8209B01AC01C801B7010E94E71E0E9439
:102CB000B71F7093AF036093AE03C401B3012981C2
:102CC0003A814B815C810E94B8207B018C01C60156
:102CD000B501A20191010E94B8209B01AC01C8017D
:102CE000B7010E94E81E0E94B71F7093B103609362
:102CF000B0038091A3029091A402892B31F48091BA
:102D00000E0390910F03892B11F01D9A08C080913A
:102D1000420183FD2D988091420181FD2D9A2091E1
:102D20003404309135044091360450913704809139
:102D30006B0490916C04A0916D04B0916E048217A5
:102D40009307A407B507E0F48091430187FD13C002
:102D500080914201877F809342011D9A2056394716
:102D60004E4F5F4F20936B0430936C0440936D047F
:102D700050936E0405C080914201886080934201A7
:102D80000E94641328960FB6F894DEBF0FBECDBF25
:102D9000CF91DF911F910F91FF90EF90DF90CF9037
:102DA000BF90AF909F908F907F906F905F904F906B
:102DB0003F902F900895CF92DF92EF92FF920F9362
:102DC0001F93DF93CF9300D000D000D0CDB7DEB7F4
:102DD0000E94560D0E9430070E94BB068091FC02A3
:102DE0009091FD029A8389838091FE029091FF0267
:102DF0009C838B8380910003909101039E838D833C
:102E00000E94AC1D6093F8037093F9038093FA035A
:102E10009093FB030E947B140E94AC1D2091F80349
:102E20003091F9034091FA035091FB03621B730B3D
:102E3000840B950B6B5872408040904050F080910D
:102E4000F6039091F70301969093F7038093F603AE
:102E500013C00E94AC1D2091F8033091F9034091FA
:102E6000FA035091FB03621B730B840B950B6A589A
:102E700072408040904068F30E94BB06FCEFEF2E4A
:102E8000F3E0FF2E00E010E06E010894C11CD11C9D
:102E9000F601E00FF11FD801A450BD4F2081318110
:102EA0008D919C91280F391FF801E658FD4FD701ED
:102EB0008D919C91820F931F63E070E00E949A2194
:102EC0007183608335952795F701219331937F01B5
:102ED0000E5F1F4F06301105D9F626960FB6F894EF
:102EE000DEBF0FBECDBFCF91DF911F910F91FF903D
:102EF000EF90DF90CF9008952F923F924F925F9284
:102F00006F927F928F929F92AF92BF92CF92DF92F9
:102F1000EF92FF920F931F93DF93CF93CDB7DEB75E
:102F2000A8970FB6F894DEBF0FBECDBF2091340432
:102F30003091350440913604509137048091470414
:102F400090914804A0914904B0914A0482179307D4
:102F5000A407B50708F0BDC1205E314B4F4F5F4F4E
:102F600020934704309348044093490450934A0403
:102F70000E943503E4E1F2E020E026952695808169
:102F8000918104E0813B900724F020688A539740A8
:102F90000CF42064329632E0EC31F30771F7809143
:102FA0006704281741F4809168048A3F30F48F5FEA
:102FB0008093680402C01092680420936704809193
:102FC0001A0290911B02815B944064F510925004A8
:102FD00010924F0410925204109251041092540413
:102FE0001092530410924C0410924B0410924E0411
:102FF00010924D048091560290915702892B91F0C6
:1030000080913804882339F08091420180FF03C009
:103010000E94770507C08091420181FF03C08D7F28
:103020008093420180916804843109F071C020913D
:10303000420121FF10C08091560290915702892BC6
:1030400009F066C0809167048F3509F061C02D7F5B
:10305000209342015DC020916704273539F480E058
:1030600092E090930F0380930E0309C02B3639F43E
:103070000E94AC1D70933C0460933B041BC0809184
:10308000560290915702892B29F42F3619F40E9489
:10309000770510C0273939F480E092E09093A402BC
:1030A0008093A30207C0273A29F4809144018160EC
:1030B00080934401809167048B3B31F480915402EA
:1030C00090915502029607C0873B51F480915402BB
:1030D000909155020297909355028093540213C029
:1030E0008E3B31F48091520290915302029607C0B8
:1030F0008D3B71F48091520290915302029790930C
:1031000053028093520281E00E94E40E1092680400
:10311000ACE1B2E060E070E020E030E0ED91FC91E5
:10312000119740E050E0CF01855195408F58914074
:1031300010F441E050E02F5F3F4F7A01022E02C0B1
:10314000EE0CFF1C0A94E2F72150304080E090E042
:1031500016E0E53AF10714F081E090E02E5F3F4F72
:10316000AC01022E02C0440F551F0A94E2F7225010
:1031700030404E295F2980E090E0E451F54014F49E
:1031800081E090E0022E02C0880F991F0A94E2F7B6
:10319000482B592B642B752B12962D5F3F4F12E055
:1031A000A432B10709F0BACF40E080915602909165
:1031B000570286239723892B09F041E04093380476
:1031C00020E0809158029091590286239723892B01
:1031D00009F021E02093390430E080915A02909167
:1031E0005B0268237923672B09F031E030933A04BE
:1031F000222339F48091450190914601C3970CF444
:10320000C5C38091420185FD0BC010924C04109201
:103210004B0410924E0410924D0480628093420140
:10322000332389F0809142018F7D8093420186FD96
:103230000FC010924C0410924B0410924E04109246
:103240004D04806403C0809142018F7B80934201D2
:10325000442329F48091420181608093420180914E
:103260001C0290911D02855A964074F18091400194
:1032700090914101892B09F066C081E090E0909324
:103280004101809340018091960290919702A09114
:103290009802B09199028093B8039093B903A093D8
:1032A000BA03B093BB038091B4039091B50390939C
:1032B0004604809345041092BF031092BE031092FF
:1032C000BD031092BC033FC0109241011092400117
:1032D0003AC080914404853018F0855080934404AE
:1032E000809144048230E1F0833028F4882341F057
:1032F000813049F508C08330E1F0843021F51EC0EB
:1033000081E080934404809144048F5F809344045F
:103310008EE391E00E94CE1C8093B6031092B70317
:10332000809144048F5F809344040E94D1098823D4
:1033300051F4809144048F5F80934404809144044D
:103340008F5F809344040E94DB160E94AC1D609343
:1033500034047093350480933604909337049B01B2
:1033600040913B0450913C04241B350B3093630285
:103370002093620270933C0460933B04809140016F
:1033800090914101892B09F44BC02091B4033091F5
:10339000B5038091450490914604A901481B590B3F
:1033A000CA0157FF03C0909581959F4F8997A4F05C
:1033B0001092BF031092BE0381E08093430480917A
:1033C000450490914604821793071CF088E290E030
:1033D00021C088ED9FEF1EC080914304882391F0A7
:1033E0008091960290919702A0919802B0919902D3
:1033F0008093B8039093B903A093BA03B093BB032F
:10340000109243048091BC039091BD032091450428
:1034100030914604820F931F9093B5038093B403B9
:103420006091B0037091B10377FF03C0709561950F
:103430007F4F8091AE039091AF0397FF03C09095AB
:1034400081959F4F681779070CF4BC0151E0653FE7
:10345000750714F064EF71E080914201982F929506
:10346000969591709C8382958695869581708B83C5
:1034700080913402E82EFF2400E010E0EB8EFC8EF9
:103480000D8F1E8F2091480230E08BEF9FEF289F19
:103490008001299F100D389F100D11241A83098374
:1034A00080913E02E82EFF2400E010E0ED8AFE8AC3
:1034B0000F8B188F8901000F111F000F111F020FB2
:1034C000131F1A8F098F2AE732E03A8B298B41E6C6
:1034D00054E0588B4F878BE594E09E878D87A5E558
:1034E000B4E0BC87AB879FE4292E94E0392EEDE24F
:1034F000F2E0FA87E9870EEA13E018870F832BE4DE
:1035000034E03E832D83882499241C8A1B8A44241A
:103510005524AA24BB24CC24DD246624772480E00F
:1035200092E0861B970B7C010027F7FC0095102F7B
:10353000EF8EF8A209A31AA38B01222717FD20956D
:10354000322F0BA31CA32DA33EA31C81112321F416
:103550002B81222309F481C00C2D023009F474C0A0
:10356000AF81B8852D913C91220F331FF301E65CAA
:10357000FE4F80819181280F391FB1E0253F3B0725
:1035800014F024EF31E0F301E45DFD4FD301A257C5
:10359000BD4F46A157A18D919C91481B590BB90174
:1035A000EEEF2C303E0714F46CE07EEF7A01E60E6D
:1035B000F71EB701882777FD8095982F2B8D3C8DBE
:1035C0004D8D5E8D0E94672117E0959587957795C3
:1035D00067951A95D1F729813A816217730714F418
:1035E000490107C04B01498D5A8D461757070CF406
:1035F0004A01AD81BE816D917C916E0D7F1DB7E258
:1036000061317B0714F060E177E29B01E8ED603FF8
:103610007E0714F420EF38EDAD81BE812D933C93ED
:10362000B901882777FD8095982F2D893E894F898C
:10363000588D0E946721BCE0959587957795679591
:10364000BA95D1F77C8B6B8BBC81BB2331F0EB81BE
:10365000EE2319F4023009F0BEC0AF81B8854D9059
:103660005C90C2018D509E4FE985FA852081875E6E
:10367000934060F4C201A6E0880F991FAA95E1F774
:10368000622F70E00E949A21CB0112C0B2018827FC
:1036900077FD8095982FF6E0660F771F881F991F9A
:1036A000FA95D1F730E040E050E00E94CF21C90107
:1036B000A989BA892D913C91F10160817181621BC8
:1036C000730B680F791FFEE361387F0714F060E821
:1036D0007EE3CB0101EC6038700714F480E891ECD4
:1036E000D1018D939C93C90137FF03C090958195BB
:1036F0009F4F815892401CF0F10111821082A985E0
:10370000BA851A962C9130E0F10180819181880F61
:10371000892F881F990B289F5001299FB00C389F33
:10372000B00C112476E0B594A7947A95E1F7FB816B
:10373000FF2309F450C062E0E62ECE1409F44BC01A
:10374000B201882777FD8095982F2BA13CA14DA130
:103750005EA10E9467217B018C01B401882777FD5F
:103760008095982F2F8D38A149A15AA10E946721D9
:10377000E60EF71E081F191F59E015950795F794D7
:10378000E7945A95D1F7F8A6EFA2B501882777FDFF
:103790008095982F2BA13CA14DA15EA10E9467218D
:1037A0007B018C012B893C89B901882777FD8095A5
:1037B000982F2F8D38A149A15AA10E946721E60EAA
:1037C000F71E081F191F49E015950795F794E79410
:1037D0004A95D1F70EC03C81332341F042E0C41634
:1037E00029F098A68FA2EB88FC8803C058A64FA2A8
:1037F0007501A989BA890D911D91BA8BA98BF60122
:10380000E35CFB4F608170E080E090E0980144272A
:1038100037FD4095542F0E94672136E09595879596
:10382000779567953A95D1F7EFA1F8A5E61BF70BC9
:10383000F8A7EFA3AF85B8898D919C911197A80146
:10384000481B590B0D931D93B88BAF87ED85FE85F3
:1038500020813181AB85BC856D917C911197620F80
:10386000731F640F751F2D933D93BC87AB874193E6
:103870005193FE87ED87830108551C4F882777FDFC
:103880008095982FF601E05CFB4F208130E040E00E
:1038900050E00E94672125E095958795779567957B
:1038A0002A95D1F7E61AF70AEFA1F8A5EE0EFF1E4A
:1038B000D801ED92FC920894C11CD11CE2E0F0E02A
:1038C0006E0E7F1E2E0E3F1E09851A850F5F1F4F3D
:1038D0001A8709872F8138852E5F3F4F38872F83BE
:1038E0004D815E814E5F5F4F5E834D8353E0C51611
:1038F000D10409F02ACE0E9496028091860290910E
:103900008702885E9340880F991F90938900809367
:1039100088008091880290918902885E9340880F88
:10392000991F90938B0080938A0080918A029091D6
:103930008B02885E934095958795959587958093A2
:10394000B30080918C0290918D02885E9340959592
:103950008795959587958093B400A8960FB6F894AF
:10396000DEBF0FBECDBFCF91DF911F910F91FF90B2
:10397000EF90DF90CF90BF90AF909F908F907F900F
:103980006F905F904F903F902F90089580914201EB
:103990008F7D44CCFC01718360830895FC0180819C
:1039A0000E94661EAA2797FDA095BA2FBC01CD01E3
:1039B0000E94EA1F2CE53FE842EA5FE30E94B8203C
:1039C0000E94BC1F862F653B08F084EB089582306F
:1039D00000F5E82FF0E0EE0FFF1FE159FB4F718378
:1039E0006083882319F08130A1F408C080916900B8
:1039F0008C7F842B80936900E89A089580916900F8
:103A0000440F551F440F551F837F842B80936900FB
:103A1000E99A08951F920F920FB60F9211242F93D7
:103A20003F934F935F936F937F938F939F93AF9346
:103A3000BF93EF93FF9380916F0490917004892B53
:103A400029F0E0916F04F09170040995FF91EF91D6
:103A5000BF91AF919F918F917F916F915F914F91A6
:103A60003F912F910F900FBE0F901F9018951F92AE
:103A70000F920FB60F9211242F933F934F935F93A2
:103A80006F937F938F939F93AF93BF93EF93FF9326
:103A90008091710490917204892B29F0E091710456
:103AA000F09172040995FF91EF91BF91AF919F91B1
:103AB0008F917F916F915F914F913F912F910F90D7
:103AC0000FBE0F901F9018951F920F920FB60F9276
:103AD00011242F933F938F939F93AF93BF93809124
:103AE000770490917804A0917904B0917A04309190
:103AF0007B040196A11DB11D232F2D5F2D3720F0D2
:103B00002D570196A11DB11D20937B04809377044E
:103B100090937804A0937904B0937A04809173040D
:103B200090917404A0917504B09176040196A11D42
:103B3000B11D8093730490937404A0937504B093A3
:103B40007604BF91AF919F918F913F912F910F90EC
:103B50000FBE0F901F9018959FB7F8942091730493
:103B600030917404409175045091760486B5A89BF9
:103B700006C08F3F21F02F5F3F4F4F4F5F4F9FBFDA
:103B8000542F432F322F2227280F311D411D511D45
:103B900082E0220F331F441F551F8A95D1F7B901C8
:103BA000CA0108959B01AC017FB7F894809173041A
:103BB00090917404A0917504B091760466B5A89BA9
:103BC00005C06F3F19F00196A11DB11D7FBFBA2F2F
:103BD000A92F982F8827860F911DA11DB11D62E086
:103BE000880F991FAA1FBB1F6A95D1F7BC012DC072
:103BF000FFB7F8948091730490917404A0917504B8
:103C0000B0917604E6B5A89B05C0EF3F19F0019688
:103C1000A11DB11DFFBFBA2FA92F982F88278E0F86
:103C2000911DA11DB11DE2E0880F991FAA1FBB1FA6
:103C3000EA95D1F7861B970B885E9340C8F2215016
:103C400030404040504068517C4F211531054105BE
:103C5000510571F60895789484B5826084BD84B569
:103C6000816084BD85B5826085BD85B5816085BD77
:103C7000EEE6F0E0808181608083E1E8F0E0108290
:103C8000808182608083808181608083E0E8F0E0D1
:103C9000808181608083E1EBF0E0808184608083BB
:103CA000E0EBF0E0808181608083EAE7F0E08081F2
:103CB0008460808380818260808380818160808352
:103CC0008081806880831092C1000895982F8E3083
:103CD00008F09E50977080912D018295880F880F73
:103CE000807C892B80937C0080917A008064809313
:103CF0007A0080917A0086FDFCCF20917800409177
:103D00007900942F80E030E0282B392BC9010895E9
:103D1000CF93DF93482F50E0CA018E5F9E4FFC0186
:103D2000349142515F4FFA018491882369F190E008
:103D3000880F991FFC01E053FF4FA591B491FC013E
:103D4000E652FF4FC591D491662351F42FB7F894F2
:103D50008C91932F909589238C93888189230BC014
:103D6000623061F42FB7F8948C91932F909589234A
:103D70008C938881832B88832FBF06C09FB7F894CC
:103D80008C91832B8C939FBFDF91CF9108950895E1
:103D9000CF93DF930E942B1E0E94C71E0E942914FE
:103DA000C0E0D0E00E947C172097E1F30E94000061
:103DB000F9CFFC0120E030E08081882311F421E07C
:103DC00030E0C9010895FC0181E0808308955058D6
:103DD000BB27AA270ED081C141D130F046D120F0B7
:103DE00031F49F3F11F41EF436C10EF4E095E7FB69
:103DF0002CC1E92F94D180F3BA17620773078407A7
:103E0000950718F071F49EF5ACC10EF4E0950B2EF9
:103E1000BA2FA02D0B01B90190010C01CA01A0011C
:103E20001124FF27591B99F0593F50F4503E68F177
:103E30001A16F040A22F232F342F4427585FF3CFB8
:103E4000469537952795A795F0405395C9F77EF489
:103E50001F16BA0B620B730B840BBAF09150A1F0D2
:103E6000FF0FBB1F661F771F881FC2F70EC0BA0F58
:103E7000621F731F841F48F4879577956795B795E0
:103E8000F7959E3F08F0B3CF9395880F08F09927D8
:103E9000EE0F979587950895F0D0E3952FC10CD03C
:103EA0001CC1E3D040F0DAD030F021F45F3F19F0CC
:103EB000CCC0511157C1CFC032D198F39923C9F367
:103EC0005523B1F3951B550BBB27AA276217730720
:103ED000840738F09F5F5F4F220F331F441FAA1FD4
:103EE000A9F333D00E2E3AF0E0E830D09150504094
:103EF000E695001CCAF729D0FE2F27D0660F771F42
:103F0000881FBB1F261737074807AB07B0E809F023
:103F1000BB0B802DBF01FF2793585F4F2AF09E3FB8
:103F2000510568F092C01EC15F3FECF3983EDCF390
:103F3000869577956795B795F7959F5FC9F7880F31
:103F4000911D9695879597F90895E1E0660F771F83
:103F5000881FBB1F621773078407BA0720F0621B14
:103F6000730B840BBA0BEE1F88F7E095089504D00D
:103F70006894B111F7C00895DAD088F09F5790F097
:103F8000B92F9927B751A0F0D1F0660F771F881F7E
:103F9000991F1AF0BA95C9F712C0B13081F0E1D07B
:103FA000B1E00895DEC0672F782F8827B85F39F019
:103FB000B93FCCF3869577956795B395D9F73EF4DD
:103FC00090958095709561957F4F8F4F9F4F089585
:103FD000E89409C097FB3EF49095809570956195A3
:103FE0007F4F8F4F9F4F9923A9F0F92F96E9BB2759
:103FF0009395F695879577956795B795F111F8CFD5
:10400000FAF4BB0F11F460FF1BC06F5F7F4F8F4F3F
:104010009F4F16C0882311F096E911C0772321F035
:104020009EE8872F762F05C0662371F096E8862FCD
:1040300070E060E02AF09A95660F771F881FDAF724
:10404000880F9695879597F9089597F99F6780E867
:1040500070E060E008959FEF80EC089500240A94DA
:104060001616170618060906089500240A94121653
:104070001306140605060895EECF59D0E8F3E89428
:10408000EFEFBB273FE048EC5FE76B3D730784072A
:10409000950708F1FF279F57B25A6A4D7F40894C18
:1040A000F04032F4BE556542704F8643FF4F08948E
:1040B000EE1F915030F0BB0F661F771F881FFF1F48
:1040C000EBCF9EE7882332F0BB0F661F771F881F58
:1040D0009A95C1F79395E095B4C0092E0394000C0E
:1040E00011F4882352F0BB0F40F4BF2B11F460FF92
:1040F00004C06F5F7F4F8F4F9F4F0895EF93E0FF96
:1041000006C0A2EA2AED3FE049EC5FEB72DEE5DF94
:104110000F90039401FC9058E8E6F0E0A2C057FD30
:104120009058440F551F59F05F3F71F04795880F25
:1041300097FB991F61F09F3F79F0879508951216BC
:1041400013061406551FF2CF4695F1DF08C0161668
:1041500017061806991FF1CF869571056105089419
:104160000895E894BB2766277727CB0197F9089530
:104170000BD0B3CF73DF28F078DF18F0952309F068
:1041800064CF69CF1124EECFCADFA0F3959FD1F39E
:10419000950F50E0551F629FF001729FBB27F00DF5
:1041A000B11D639FAA27F00DB11DAA1F649F66274A
:1041B000B00DA11D661F829F2227B00DA11D621F99
:1041C000739FB00DA11D621F839FA00D611D221F53
:1041D000749F3327A00D611D231F849F600D211D37
:1041E000822F762F6A2F11249F5750408AF0E1F0DA
:1041F00088234AF0EE0FFF1FBB1F661F771F881F23
:1042000091505040A9F79E3F510570F01ECFAACFA4
:104210005F3FECF3983EDCF3869577956795B7950D
:10422000F795E7959F5FC1F7FE2B880F911D969537
:10423000879597F908959F9320DF0F9007FCEE5F15
:104240005DCF9F3F49F0915028F48695779567950B
:10425000B7959F5F80389F4F880F9695879597F900
:1042600008959F938F937F936F93FF93EF939B0199
:10427000AC017EDFEF91FF9105D02F913F914F91DF
:104280005F9176CFDF93CF931F930F93FF92EF92BF
:10429000DF927B018C01689405C0DA2EEF0174DF98
:1042A000FE01E894A5912591359145915591AEF384
:1042B000EF019FDDFE019701A801DA9479F7DF9005
:1042C000EF90FF900F911F91CF91DF910895629F22
:1042D000D001739FF001829FE00DF11D649FE00DFE
:1042E000F11D929FF00D839FF00D749FF00D659F5F
:1042F000F00D9927729FB00DE11DF91F639FB00D5E
:10430000E11DF91FBD01CF0111240895AA1BBB1B9C
:1043100051E107C0AA1FBB1FA617B70710F0A61BC5
:10432000B70B881F991F5A95A9F780959095BC01E6
:10433000CD01089597FB092E07260AD077FD04D0FA
:10434000E5DF06D000201AF4709561957F4F08953F
:10435000F6F7909581959F4F0895A1E21A2EAA1B1A
:10436000BB1BFD010DC0AA1FBB1FEE1FFF1FA21725
:10437000B307E407F50720F0A21BB30BE40BF50B22
:10438000661F771F881F991F1A9469F760957095AB
:10439000809590959B01AC01BD01CF01089597FBDD
:1043A000092E05260ED057FD04D0D7DF0AD0001CF9
:1043B00038F450954095309521953F4F4F4F5F4FC2
:1043C0000895F6F790958095709561957F4F8F4F82
:1043D0009F4F0895EE0FFF1F0590F491E02D099473
:1043E0002F923F924F925F926F927F928F929F9205
:1043F000AF92BF92CF92DF92EF92FF920F931F93F3
:10440000CF93DF93CDB7DEB7CA1BDB0B0FB6F894A3
:10441000DEBF0FBECDBF09942A88398848885F84E3
:104420006E847D848C849B84AA84B984C884DF8054
:10443000EE80FD800C811B81AA81B981CE0FD11D38
:104440000FB6F894DEBF0FBECDBFED010895F8940E
:02445000FFCF9C
:10445200090A0B030605100CDC05DC05DC05DC058E
:10446200DC05DC05DC05DC05DC05DC05DC05DC0542
:104472000400000000000000000100000001010231
:0E44820003000405060708090A0B00000000ED
:00000001FF
